:100000000C94E5000C9416010C9416010C94160146
:100010000C9416010C9416010C9416010C94160104
:100020000C9416010C9416010C9416010C941601F4
:100030000C9416010C9416010C9416010C941601E4
:100040000C9416010C9416010C9416010C941601D4
:100050000C9416010C9416010C9416010C940F03C9
:100060000C9416010C949B020C9471020C941601D2
:100070000C9416010C9416010C9416010C941601A4
:100080000C9416010C9416010C9416010C94160194
:100090000C9416010C9416010C9416010C94160184
:1000A0000C9416010C9416010C9416010C94160174
:1000B0000C9416010C9416010C9416010C94160164
:1000C0000C9416010C9416010C9416010C94160154
:1000D0000C9416010C9416010C9416010C94160144
:1000E0000C9416010C9476010C9445010C94FB01C0
:1000F0000D94DC200C94AE010C941B020C94540162
:100100000C9418010C9468010000220025002800BE
:100110002B002E003100340002010000050108010F
:100120000B0100002100240027002A002D003000D0
:10013000330001010000040107010A01050505055E
:10014000070508080808020202020A0A080804044F
:10015000040401010101010101010303030303037D
:100160000303040707070C0C0C0C0C0C0C0C02020C
:10017000020206060606060606060B0B0B0B0B0B09
:100180000B0B010210202008081020401020408096
:10019000020102010804020101020408102040804B
:1001A00080402010080402018004020180402010D9
:1001B0000804020108040201010204081020408022
:1001C0000102040810204080780011241FBECFEFE8
:1001D000D1E2DEBFCDBF00E00CBF12E0A0E0B2E094
:1001E000EAE6F2E402E00BBF02C007900D92A431F0
:1001F000B107D9F72EE1A4E1B2E001C01D92A03D04
:10020000B207E1F710E0C5EED0E000E006C02197AC
:100210000109802FFE010F942B21C43ED10780E0FD
:100220000807A9F70E94A7030D9433210C9400003E
:10023000AF92BF92CF92DF92EF92FF920F931F93F4
:10024000CF93DF936C017B018B01040F151FEB0132
:100250005E01AE18BF08C017D10759F06991D601E9
:10026000ED91FC910190F081E02DC6011995892B4B
:1002700079F7C501DF91CF911F910F91FF90EF901A
:10028000DF90CF90BF90AF900895FC01538D448DC7
:10029000252F30E0842F90E0821B930B541710F031
:1002A000CF96089501970895FC01918D828D98173E
:1002B00061F0A28DAE0FBF2FB11D5D968C91928D16
:1002C0009F5F9F73928F90E008958FEF9FEF089547
:1002D000FC01918D828D981731F0828DE80FF11D10
:1002E000858D90E008958FEF9FEF0895FC01918D2B
:1002F000228D892F90E0805C9F4F821B91098F7324
:100300009927089583E39EE10E94760121E0892BDD
:1003100009F420E0822F0895FC01A48DA80FB92FC5
:10032000B11DA35ABF4F2C91848D90E001968F731D
:100330009927848FA689B7892C93A089B1898C913C
:10034000837080648C93938D848D981306C002888B
:10035000F389E02D80818F7D80830895EF92FF9255
:100360000F931F93CF93DF93EC0181E0888F9B8DD8
:100370008C8D98131AC0E889F989808185FF15C092
:100380009FB7F894EE89FF896083E889F9898081B5
:100390008370806480839FBF81E090E0DF91CF9184
:1003A0001F910F91FF90EF900895F62E0B8D10E0A6
:1003B0000F5F1F4F0F731127E02E8C8D8E110CC015
:1003C0000FB607FCFACFE889F989808185FFF5CF60
:1003D000CE010E948C01F1CFEB8DEC0FFD2FF11DB2
:1003E000E35AFF4FF0829FB7F8940B8FEA89FB899D
:1003F00080818062CFCFCF93DF93EC01888D8823FB
:10040000B9F0AA89BB89E889F9898C9185FD03C077
:10041000808186FD0DC00FB607FCF7CF8C9185FF5C
:10042000F2CF808185FFEDCFCE010E948C01E9CF14
:10043000DF91CF91089580E090E0892B29F00E9410
:10044000820181110E94000080E090E0892B49F038
:1004500080E090E0892B29F00E94000081110E9429
:10046000000080E090E0892B49F080E090E0892B4B
:1004700029F00E94000081110E94000080E090E0BD
:10048000892B49F080E090E0892B29F00E94000040
:1004900081110C94000008953FB7F89480912F1EAD
:1004A0009091301EA091311EB091321E26B5A89BAE
:1004B00005C02F3F19F00196A11DB11D3FBFBA2FF6
:1004C000A92F982F8827BC01CD01620F711D811DB6
:1004D000911D42E0660F771F881F991F4A95D1F73B
:1004E00008951F920F920FB60F9211240BB60F9220
:1004F0002F933F934F935F936F937F938F939F932C
:10050000AF93BF93EF93FF9383E39EE10E948C012F
:10051000FF91EF91BF91AF919F918F917F916F91DB
:100520005F914F913F912F910F900BBE0F900FBE97
:100530000F901F9018951F920F920FB60F921124D3
:100540000BB60F922F938F939F93EF93FF93E091AE
:10055000431EF091441E8081E091491EF0914A1E95
:1005600082FD1DC0908180914C1E8F5F8F73209102
:100570004D1E821741F0E0914C1EF0E0ED5CF14E13
:10058000958F80934C1EFF91EF919F918F912F91AA
:100590000F900BBE0F900FBE0F901F90189580818B
:1005A000F2CF8230910538F0880F991F880F991F7C
:1005B00005970197F1F708958F929F92AF92BF929E
:1005C000CF92DF92EF92FF926B017C010E944C026E
:1005D0004B015C01C114D104E104F104B9F00E94A3
:1005E0004C02681979098A099B09683E73408105A4
:1005F000910580F321E0C21AD108E108F10888EEE4
:10060000880E83E0981EA11CB11CE4CFFF90EF90F0
:10061000DF90CF90BF90AF909F908F9008951F92E2
:100620000F920FB60F9211242F933F938F939F93A6
:10063000AF93BF9380912B1E90912C1EA0912D1EE5
:10064000B0912E1E30912A1E23E0230F2D3758F52E
:100650000196A11DB11D20932A1E80932B1E9093FD
:100660002C1EA0932D1EB0932E1E80912F1E9091B4
:10067000301EA091311EB091321E0196A11DB11DF8
:1006800080932F1E9093301EA093311EB093321E84
:10069000BF91AF919F918F913F912F910F900FBE7E
:1006A0000F901F90189526E8230F0296A11DB11DEB
:1006B000D2CFCF93DF936AE070E080E090E00E94B9
:1006C000DC0283E39EE10E945401C4E1D2E088830E
:1006D00083E39EE10E945401898383E39EE10E94AB
:1006E00054018A8383E39EE10E9454018B83DF914E
:1006F000CF910895682F83E39EE10C94AE01CF93D0
:10070000DF9390E0FC01EE57FE4F2491845C9E4FF6
:10071000FC0184918823C1F090E0880F991FFC01AF
:10072000EE5DFE4FC591D491FC01E85FFE4FA591AF
:10073000B4919FB7F8948881E22FE0958E23888347
:100740008C91E823EC939FBFDF91CF91089578942B
:1007500084B5826084BD84B5816084BD85B58260C6
:1007600085BD85B5816085BD80916E008160809377
:100770006E001092810080918100826080938100E0
:1007800080918100816080938100809180008160F0
:10079000809380008091B10084608093B10080914B
:1007A000B00081608093B00080919100826080935E
:1007B00091008091910081608093910080919000E0
:1007C0008160809390008091A10082608093A1005D
:1007D0008091A10081608093A1008091A000816040
:1007E0008093A000809121018260809321018091FB
:1007F000210181608093210180912001816080939B
:10080000200180917A00846080937A0080917A0040
:10081000826080937A0080917A00816080937A0070
:1008200080917A00806880937A001092C100E091F4
:10083000431EF091441E82E08083E0913F1EF091C0
:10084000401E1082E091411EF091421E80E18083A3
:1008500010924B1EE091471EF091481E86E0808367
:10086000E091451EF091461E808180618083E09179
:10087000451EF091461E808188608083E091451E70
:10088000F091461E808180688083E091451EF09142
:10089000461E80818F7D8083579A86E10E947F0368
:1008A00087E10E947F0388E10E947F0389E10E9423
:1008B0007F038AE10E947F038BE10E947F038CE12A
:1008C0000E947F038DE10E947F0364E6862E912CB7
:1008D000A12CB12C70EAC72E76E8D72EEE24E39433
:1008E000F12CC0E8EBE84E2E55245394612CFCE12A
:1008F0007F2E83E39EE10E94760118161906ACF460
:1009000083E39EE10E9454018138910511F40D9416
:100910001E200CF05AC08230910509F476C064F4B0
:10092000EAE2F2E0019709F481C04BE152E0452B85
:1009300001F30E941B02DDCF8430910511F40D9468
:100940004F208038910589F70E9459038091160243
:1009500090E0B0E0A0E0BA2FA92F982F882720912F
:100960001502820F911DA11DB11DBA2FA92F982F1D
:10097000882720911402AC01BD01420F511D611D59
:10098000711D8A019B010093260210932702209378
:10099000280230932902CB01BA016F5F7F4F8F4F3E
:1009A0009F4F0036134E2641310510F40D9414204C
:1009B0001092250210922402A70196010F9409219A
:1009C0003093210220932002B0CF803C910511F496
:1009D0000D94FE1F74F48238910509F0A6CF0E9491
:1009E00059038091150286FB882780F980931B02AA
:1009F0009CCF813C910511F40D940920823C910516
:100A000009F093CF0E94590390CF81E390E00E94B8
:100A10007A0381E490E00E947A038CE490E00E94E3
:100A20007A0383E590E00E947A037FCF11922EE152
:100A3000EA32F207D9F740912602509127026091DD
:100A4000280270912902809122029091230248315C
:100A500051056105710511F00C945B75009761F00B
:100A600040911E0250911F0220B1BA0162279B01E2
:100A700028233923232BC1F7F894579ACBB91BB8F5
:100A8000CBB91BB8CBB980B180932A02000080B1EA
:100A900080932B02000080B180932C02000080B173
:100AA00080932D02000080B180932E02000080B15F
:100AB00080932F02000080B180933002000080B14B
:100AC00080933102000080B180933202000080B137
:100AD00080933302000080B180933402000080B123
:100AE00080933502000080B180933602000080B10F
:100AF00080933702000080B180933802000080B1FB
:100B000080933902000080B180933A02000080B1E6
:100B100080933B02000080B180933C02000080B1D2
:100B200080933D02000080B180933E02000080B1BE
:100B300080933F02000080B180934002000080B1AA
:100B400080934102000080B180934202000080B196
:100B500080934302000080B180934402000080B182
:100B600080934502000080B180934602000080B16E
:100B700080934702000080B180934802000080B15A
:100B800080934902000080B180934A02000080B146
:100B900080934B02000080B180934C02000080B132
:100BA00080934D02000080B180934E02000080B11E
:100BB00080934F02000080B180935002000080B10A
:100BC00080935102000080B180935202000080B1F6
:100BD00080935302000080B180935402000080B1E2
:100BE00080935502000080B180935602000080B1CE
:100BF00080935702000080B180935802000080B1BA
:100C000080935902000080B180935A02000080B1A5
:100C100080935B02000080B180935C02000080B191
:100C200080935D02000080B180935E02000080B17D
:100C300080935F02000080B180936002000080B169
:100C400080936102000080B180936202000080B155
:100C500080936302000080B180936402000080B141
:100C600080936502000080B180936602000080B12D
:100C700080936702000080B180936802000080B119
:100C800080936902000080B180936A02000080B105
:100C900080936B02000080B180936C02000080B1F1
:100CA00080936D02000080B180936E02000080B1DD
:100CB00080936F02000080B180937002000080B1C9
:100CC00080937102000080B180937202000080B1B5
:100CD00080937302000080B180937402000080B1A1
:100CE00080937502000080B180937602000080B18D
:100CF00080937702000080B180937802000080B179
:100D000080937902000080B180937A02000080B164
:100D100080937B02000080B180937C02000080B150
:100D200080937D02000080B180937E02000080B13C
:100D300080937F02000080B180938002000080B128
:100D400080938102000080B180938202000080B114
:100D500080938302000080B180938402000080B100
:100D600080938502000080B180938602000080B1EC
:100D700080938702000080B180938802000080B1D8
:100D800080938902000080B180938A02000080B1C4
:100D900080938B02000080B180938C02000080B1B0
:100DA00080938D02000080B180938E02000080B19C
:100DB00080938F02000080B180939002000080B188
:100DC00080939102000080B180939202000080B174
:100DD00080939302000080B180939402000080B160
:100DE00080939502000080B180939602000080B14C
:100DF00080939702000080B180939802000080B138
:100E000080939902000080B180939A02000080B123
:100E100080939B02000080B180939C02000080B10F
:100E200080939D02000080B180939E02000080B1FB
:100E300080939F02000080B18093A002000080B1E7
:100E40008093A102000080B18093A202000080B1D3
:100E50008093A302000080B18093A402000080B1BF
:100E60008093A502000080B18093A602000080B1AB
:100E70008093A702000080B18093A802000080B197
:100E80008093A902000080B18093AA02000080B183
:100E90008093AB02000080B18093AC02000080B16F
:100EA0008093AD02000080B18093AE02000080B15B
:100EB0008093AF02000080B18093B002000080B147
:100EC0008093B102000080B18093B202000080B133
:100ED0008093B302000080B18093B402000080B11F
:100EE0008093B502000080B18093B602000080B10B
:100EF0008093B702000080B18093B802000080B1F7
:100F00008093B902000080B18093BA02000080B1E2
:100F10008093BB02000080B18093BC02000080B1CE
:100F20008093BD02000080B18093BE02000080B1BA
:100F30008093BF02000080B18093C002000080B1A6
:100F40008093C102000080B18093C202000080B192
:100F50008093C302000080B18093C402000080B17E
:100F60008093C502000080B18093C602000080B16A
:100F70008093C702000080B18093C802000080B156
:100F80008093C902000080B18093CA02000080B142
:100F90008093CB02000080B18093CC02000080B12E
:100FA0008093CD02000080B18093CE02000080B11A
:100FB0008093CF02000080B18093D002000080B106
:100FC0008093D102000080B18093D202000080B1F2
:100FD0008093D302000080B18093D402000080B1DE
:100FE0008093D502000080B18093D602000080B1CA
:100FF0008093D702000080B18093D802000080B1B6
:101000008093D902000080B18093DA02000080B1A1
:101010008093DB02000080B18093DC02000080B18D
:101020008093DD02000080B18093DE02000080B179
:101030008093DF02000080B18093E002000080B165
:101040008093E102000080B18093E202000080B151
:101050008093E302000080B18093E402000080B13D
:101060008093E502000080B18093E602000080B129
:101070008093E702000080B18093E802000080B115
:101080008093E902000080B18093EA02000080B101
:101090008093EB02000080B18093EC02000080B1ED
:1010A0008093ED02000080B18093EE02000080B1D9
:1010B0008093EF02000080B18093F002000080B1C5
:1010C0008093F102000080B18093F202000080B1B1
:1010D0008093F302000080B18093F402000080B19D
:1010E0008093F502000080B18093F602000080B189
:1010F0008093F702000080B18093F802000080B175
:101100008093F902000080B18093FA02000080B160
:101110008093FB02000080B18093FC02000080B14C
:101120008093FD02000080B18093FE02000080B138
:101130008093FF02000080B180930003000080B123
:1011400080930103000080B180930203000080B10E
:1011500080930303000080B180930403000080B1FA
:1011600080930503000080B180930603000080B1E6
:1011700080930703000080B180930803000080B1D2
:1011800080930903000080B180930A03000080B1BE
:1011900080930B03000080B180930C03000080B1AA
:1011A00080930D03000080B180930E03000080B196
:1011B00080930F03000080B180931003000080B182
:1011C00080931103000080B180931203000080B16E
:1011D00080931303000080B180931403000080B15A
:1011E00080931503000080B180931603000080B146
:1011F00080931703000080B180931803000080B132
:1012000080931903000080B180931A03000080B11D
:1012100080931B03000080B180931C03000080B109
:1012200080931D03000080B180931E03000080B1F5
:1012300080931F03000080B180932003000080B1E1
:1012400080932103000080B180932203000080B1CD
:1012500080932303000080B180932403000080B1B9
:1012600080932503000080B180932603000080B1A5
:1012700080932703000080B180932803000080B191
:1012800080932903000080B180932A03000080B17D
:1012900080932B03000080B180932C03000080B169
:1012A00080932D03000080B180932E03000080B155
:1012B00080932F03000080B180933003000080B141
:1012C00080933103000080B180933203000080B12D
:1012D00080933303000080B180933403000080B119
:1012E00080933503000080B180933603000080B105
:1012F00080933703000080B180933803000080B1F1
:1013000080933903000080B180933A03000080B1DC
:1013100080933B03000080B180933C03000080B1C8
:1013200080933D03000080B180933E03000080B1B4
:1013300080933F03000080B180934003000080B1A0
:1013400080934103000080B180934203000080B18C
:1013500080934303000080B180934403000080B178
:1013600080934503000080B180934603000080B164
:1013700080934703000080B180934803000080B150
:1013800080934903000080B180934A03000080B13C
:1013900080934B03000080B180934C03000080B128
:1013A00080934D03000080B180934E03000080B114
:1013B00080934F03000080B180935003000080B100
:1013C00080935103000080B180935203000080B1EC
:1013D00080935303000080B180935403000080B1D8
:1013E00080935503000080B180935603000080B1C4
:1013F00080935703000080B180935803000080B1B0
:1014000080935903000080B180935A03000080B19B
:1014100080935B03000080B180935C03000080B187
:1014200080935D03000080B180935E03000080B173
:1014300080935F03000080B180936003000080B15F
:1014400080936103000080B180936203000080B14B
:1014500080936303000080B180936403000080B137
:1014600080936503000080B180936603000080B123
:1014700080936703000080B180936803000080B10F
:1014800080936903000080B180936A03000080B1FB
:1014900080936B03000080B180936C03000080B1E7
:1014A00080936D03000080B180936E03000080B1D3
:1014B00080936F03000080B180937003000080B1BF
:1014C00080937103000080B180937203000080B1AB
:1014D00080937303000080B180937403000080B197
:1014E00080937503000080B180937603000080B183
:1014F00080937703000080B180937803000080B16F
:1015000080937903000080B180937A03000080B15A
:1015100080937B03000080B180937C03000080B146
:1015200080937D03000080B180937E03000080B132
:1015300080937F03000080B180938003000080B11E
:1015400080938103000080B180938203000080B10A
:1015500080938303000080B180938403000080B1F6
:1015600080938503000080B180938603000080B1E2
:1015700080938703000080B180938803000080B1CE
:1015800080938903000080B180938A03000080B1BA
:1015900080938B03000080B180938C03000080B1A6
:1015A00080938D03000080B180938E03000080B192
:1015B00080938F03000080B180939003000080B17E
:1015C00080939103000080B180939203000080B16A
:1015D00080939303000080B180939403000080B156
:1015E00080939503000080B180939603000080B142
:1015F00080939703000080B180939803000080B12E
:1016000080939903000080B180939A03000080B119
:1016100080939B03000080B180939C03000080B105
:1016200080939D03000080B180939E03000080B1F1
:1016300080939F03000080B18093A003000080B1DD
:101640008093A103000080B18093A203000080B1C9
:101650008093A303000080B18093A403000080B1B5
:101660008093A503000080B18093A603000080B1A1
:101670008093A703000080B18093A803000080B18D
:101680008093A903000080B18093AA03000080B179
:101690008093AB03000080B18093AC03000080B165
:1016A0008093AD03000080B18093AE03000080B151
:1016B0008093AF03000080B18093B003000080B13D
:1016C0008093B103000080B18093B203000080B129
:1016D0008093B303000080B18093B403000080B115
:1016E0008093B503000080B18093B603000080B101
:1016F0008093B703000080B18093B803000080B1ED
:101700008093B903000080B18093BA03000080B1D8
:101710008093BB03000080B18093BC03000080B1C4
:101720008093BD03000080B18093BE03000080B1B0
:101730008093BF03000080B18093C003000080B19C
:101740008093C103000080B18093C203000080B188
:101750008093C303000080B18093C403000080B174
:101760008093C503000080B18093C603000080B160
:101770008093C703000080B18093C803000080B14C
:101780008093C903000080B18093CA03000080B138
:101790008093CB03000080B18093CC03000080B124
:1017A0008093CD03000080B18093CE03000080B110
:1017B0008093CF03000080B18093D003000080B1FC
:1017C0008093D103000080B18093D203000080B1E8
:1017D0008093D303000080B18093D403000080B1D4
:1017E0008093D503000080B18093D603000080B1C0
:1017F0008093D703000080B18093D803000080B1AC
:101800008093D903000080B18093DA03000080B197
:101810008093DB03000080B18093DC03000080B183
:101820008093DD03000080B18093DE03000080B16F
:101830008093DF03000080B18093E003000080B15B
:101840008093E103000080B18093E203000080B147
:101850008093E303000080B18093E403000080B133
:101860008093E503000080B18093E603000080B11F
:101870008093E703000080B18093E803000080B10B
:101880008093E903000080B18093EA03000080B1F7
:101890008093EB03000080B18093EC03000080B1E3
:1018A0008093ED03000080B18093EE03000080B1CF
:1018B0008093EF03000080B18093F003000080B1BB
:1018C0008093F103000080B18093F203000080B1A7
:1018D0008093F303000080B18093F403000080B193
:1018E0008093F503000080B18093F603000080B17F
:1018F0008093F703000080B18093F803000080B16B
:101900008093F903000080B18093FA03000080B156
:101910008093FB03000080B18093FC03000080B142
:101920008093FD03000080B18093FE03000080B12E
:101930008093FF03000080B180930004000080B119
:1019400080930104000080B180930204000080B104
:1019500080930304000080B180930404000080B1F0
:1019600080930504000080B180930604000080B1DC
:1019700080930704000080B180930804000080B1C8
:1019800080930904000080B180930A04000080B1B4
:1019900080930B04000080B180930C04000080B1A0
:1019A00080930D04000080B180930E04000080B18C
:1019B00080930F04000080B180931004000080B178
:1019C00080931104000080B180931204000080B164
:1019D00080931304000080B180931404000080B150
:1019E00080931504000080B180931604000080B13C
:1019F00080931704000080B180931804000080B128
:101A000080931904000080B180931A04000080B113
:101A100080931B04000080B180931C04000080B1FF
:101A200080931D04000080B180931E04000080B1EB
:101A300080931F04000080B180932004000080B1D7
:101A400080932104000080B180932204000080B1C3
:101A500080932304000080B180932404000080B1AF
:101A600080932504000080B180932604000080B19B
:101A700080932704000080B180932804000080B187
:101A800080932904000080B180932A04000080B173
:101A900080932B04000080B180932C04000080B15F
:101AA00080932D04000080B180932E04000080B14B
:101AB00080932F04000080B180933004000080B137
:101AC00080933104000080B180933204000080B123
:101AD00080933304000080B180933404000080B10F
:101AE00080933504000080B180933604000080B1FB
:101AF00080933704000080B180933804000080B1E7
:101B000080933904000080B180933A04000080B1D2
:101B100080933B04000080B180933C04000080B1BE
:101B200080933D04000080B180933E04000080B1AA
:101B300080933F04000080B180934004000080B196
:101B400080934104000080B180934204000080B182
:101B500080934304000080B180934404000080B16E
:101B600080934504000080B180934604000080B15A
:101B700080934704000080B180934804000080B146
:101B800080934904000080B180934A04000080B132
:101B900080934B04000080B180934C04000080B11E
:101BA00080934D04000080B180934E04000080B10A
:101BB00080934F04000080B180935004000080B1F6
:101BC00080935104000080B180935204000080B1E2
:101BD00080935304000080B180935404000080B1CE
:101BE00080935504000080B180935604000080B1BA
:101BF00080935704000080B180935804000080B1A6
:101C000080935904000080B180935A04000080B191
:101C100080935B04000080B180935C04000080B17D
:101C200080935D04000080B180935E04000080B169
:101C300080935F04000080B180936004000080B155
:101C400080936104000080B180936204000080B141
:101C500080936304000080B180936404000080B12D
:101C600080936504000080B180936604000080B119
:101C700080936704000080B180936804000080B105
:101C800080936904000080B180936A04000080B1F1
:101C900080936B04000080B180936C04000080B1DD
:101CA00080936D04000080B180936E04000080B1C9
:101CB00080936F04000080B180937004000080B1B5
:101CC00080937104000080B180937204000080B1A1
:101CD00080937304000080B180937404000080B18D
:101CE00080937504000080B180937604000080B179
:101CF00080937704000080B180937804000080B165
:101D000080937904000080B180937A04000080B150
:101D100080937B04000080B180937C04000080B13C
:101D200080937D04000080B180937E04000080B128
:101D300080937F04000080B180938004000080B114
:101D400080938104000080B180938204000080B100
:101D500080938304000080B180938404000080B1EC
:101D600080938504000080B180938604000080B1D8
:101D700080938704000080B180938804000080B1C4
:101D800080938904000080B180938A04000080B1B0
:101D900080938B04000080B180938C04000080B19C
:101DA00080938D04000080B180938E04000080B188
:101DB00080938F04000080B180939004000080B174
:101DC00080939104000080B180939204000080B160
:101DD00080939304000080B180939404000080B14C
:101DE00080939504000080B180939604000080B138
:101DF00080939704000080B180939804000080B124
:101E000080939904000080B180939A04000080B10F
:101E100080939B04000080B180939C04000080B1FB
:101E200080939D04000080B180939E04000080B1E7
:101E300080939F04000080B18093A004000080B1D3
:101E40008093A104000080B18093A204000080B1BF
:101E50008093A304000080B18093A404000080B1AB
:101E60008093A504000080B18093A604000080B197
:101E70008093A704000080B18093A804000080B183
:101E80008093A904000080B18093AA04000080B16F
:101E90008093AB04000080B18093AC04000080B15B
:101EA0008093AD04000080B18093AE04000080B147
:101EB0008093AF04000080B18093B004000080B133
:101EC0008093B104000080B18093B204000080B11F
:101ED0008093B304000080B18093B404000080B10B
:101EE0008093B504000080B18093B604000080B1F7
:101EF0008093B704000080B18093B804000080B1E3
:101F00008093B904000080B18093BA04000080B1CE
:101F10008093BB04000080B18093BC04000080B1BA
:101F20008093BD04000080B18093BE04000080B1A6
:101F30008093BF04000080B18093C004000080B192
:101F40008093C104000080B18093C204000080B17E
:101F50008093C304000080B18093C404000080B16A
:101F60008093C504000080B18093C604000080B156
:101F70008093C704000080B18093C804000080B142
:101F80008093C904000080B18093CA04000080B12E
:101F90008093CB04000080B18093CC04000080B11A
:101FA0008093CD04000080B18093CE04000080B106
:101FB0008093CF04000080B18093D004000080B1F2
:101FC0008093D104000080B18093D204000080B1DE
:101FD0008093D304000080B18093D404000080B1CA
:101FE0008093D504000080B18093D604000080B1B6
:101FF0008093D704000080B18093D804000080B1A2
:102000008093D904000080B18093DA04000080B18D
:102010008093DB04000080B18093DC04000080B179
:102020008093DD04000080B18093DE04000080B165
:102030008093DF04000080B18093E004000080B151
:102040008093E104000080B18093E204000080B13D
:102050008093E304000080B18093E404000080B129
:102060008093E504000080B18093E604000080B115
:102070008093E704000080B18093E804000080B101
:102080008093E904000080B18093EA04000080B1ED
:102090008093EB04000080B18093EC04000080B1D9
:1020A0008093ED04000080B18093EE04000080B1C5
:1020B0008093EF04000080B18093F004000080B1B1
:1020C0008093F104000080B18093F204000080B19D
:1020D0008093F304000080B18093F404000080B189
:1020E0008093F504000080B18093F604000080B175
:1020F0008093F704000080B18093F804000080B161
:102100008093F904000080B18093FA04000080B14C
:102110008093FB04000080B18093FC04000080B138
:102120008093FD04000080B18093FE04000080B124
:102130008093FF04000080B180930005000080B10F
:1021400080930105000080B180930205000080B1FA
:1021500080930305000080B180930405000080B1E6
:1021600080930505000080B180930605000080B1D2
:1021700080930705000080B180930805000080B1BE
:1021800080930905000080B180930A05000080B1AA
:1021900080930B05000080B180930C05000080B196
:1021A00080930D05000080B180930E05000080B182
:1021B00080930F05000080B180931005000080B16E
:1021C00080931105000080B180931205000080B15A
:1021D00080931305000080B180931405000080B146
:1021E00080931505000080B180931605000080B132
:1021F00080931705000080B180931805000080B11E
:1022000080931905000080B180931A05000080B109
:1022100080931B05000080B180931C05000080B1F5
:1022200080931D05000080B180931E05000080B1E1
:1022300080931F05000080B180932005000080B1CD
:1022400080932105000080B180932205000080B1B9
:1022500080932305000080B180932405000080B1A5
:1022600080932505000080B180932605000080B191
:1022700080932705000080B180932805000080B17D
:1022800080932905000080B180932A05000080B169
:1022900080932B05000080B180932C05000080B155
:1022A00080932D05000080B180932E05000080B141
:1022B00080932F05000080B180933005000080B12D
:1022C00080933105000080B180933205000080B119
:1022D00080933305000080B180933405000080B105
:1022E00080933505000080B180933605000080B1F1
:1022F00080933705000080B180933805000080B1DD
:1023000080933905000080B180933A05000080B1C8
:1023100080933B05000080B180933C05000080B1B4
:1023200080933D05000080B180933E05000080B1A0
:1023300080933F05000080B180934005000080B18C
:1023400080934105000080B180934205000080B178
:1023500080934305000080B180934405000080B164
:1023600080934505000080B180934605000080B150
:1023700080934705000080B180934805000080B13C
:1023800080934905000080B180934A05000080B128
:1023900080934B05000080B180934C05000080B114
:1023A00080934D05000080B180934E05000080B100
:1023B00080934F05000080B180935005000080B1EC
:1023C00080935105000080B180935205000080B1D8
:1023D00080935305000080B180935405000080B1C4
:1023E00080935505000080B180935605000080B1B0
:1023F00080935705000080B180935805000080B19C
:1024000080935905000080B180935A05000080B187
:1024100080935B05000080B180935C05000080B173
:1024200080935D05000080B180935E05000080B15F
:1024300080935F05000080B180936005000080B14B
:1024400080936105000080B180936205000080B137
:1024500080936305000080B180936405000080B123
:1024600080936505000080B180936605000080B10F
:1024700080936705000080B180936805000080B1FB
:1024800080936905000080B180936A05000080B1E7
:1024900080936B05000080B180936C05000080B1D3
:1024A00080936D05000080B180936E05000080B1BF
:1024B00080936F05000080B180937005000080B1AB
:1024C00080937105000080B180937205000080B197
:1024D00080937305000080B180937405000080B183
:1024E00080937505000080B180937605000080B16F
:1024F00080937705000080B180937805000080B15B
:1025000080937905000080B180937A05000080B146
:1025100080937B05000080B180937C05000080B132
:1025200080937D05000080B180937E05000080B11E
:1025300080937F05000080B180938005000080B10A
:1025400080938105000080B180938205000080B1F6
:1025500080938305000080B180938405000080B1E2
:1025600080938505000080B180938605000080B1CE
:1025700080938705000080B180938805000080B1BA
:1025800080938905000080B180938A05000080B1A6
:1025900080938B05000080B180938C05000080B192
:1025A00080938D05000080B180938E05000080B17E
:1025B00080938F05000080B180939005000080B16A
:1025C00080939105000080B180939205000080B156
:1025D00080939305000080B180939405000080B142
:1025E00080939505000080B180939605000080B12E
:1025F00080939705000080B180939805000080B11A
:1026000080939905000080B180939A05000080B105
:1026100080939B05000080B180939C05000080B1F1
:1026200080939D05000080B180939E05000080B1DD
:1026300080939F05000080B18093A005000080B1C9
:102640008093A105000080B18093A205000080B1B5
:102650008093A305000080B18093A405000080B1A1
:102660008093A505000080B18093A605000080B18D
:102670008093A705000080B18093A805000080B179
:102680008093A905000080B18093AA05000080B165
:102690008093AB05000080B18093AC05000080B151
:1026A0008093AD05000080B18093AE05000080B13D
:1026B0008093AF05000080B18093B005000080B129
:1026C0008093B105000080B18093B205000080B115
:1026D0008093B305000080B18093B405000080B101
:1026E0008093B505000080B18093B605000080B1ED
:1026F0008093B705000080B18093B805000080B1D9
:102700008093B905000080B18093BA05000080B1C4
:102710008093BB05000080B18093BC05000080B1B0
:102720008093BD05000080B18093BE05000080B19C
:102730008093BF05000080B18093C005000080B188
:102740008093C105000080B18093C205000080B174
:102750008093C305000080B18093C405000080B160
:102760008093C505000080B18093C605000080B14C
:102770008093C705000080B18093C805000080B138
:102780008093C905000080B18093CA05000080B124
:102790008093CB05000080B18093CC05000080B110
:1027A0008093CD05000080B18093CE05000080B1FC
:1027B0008093CF05000080B18093D005000080B1E8
:1027C0008093D105000080B18093D205000080B1D4
:1027D0008093D305000080B18093D405000080B1C0
:1027E0008093D505000080B18093D605000080B1AC
:1027F0008093D705000080B18093D805000080B198
:102800008093D905000080B18093DA05000080B183
:102810008093DB05000080B18093DC05000080B16F
:102820008093DD05000080B18093DE05000080B15B
:102830008093DF05000080B18093E005000080B147
:102840008093E105000080B18093E205000080B133
:102850008093E305000080B18093E405000080B11F
:102860008093E505000080B18093E605000080B10B
:102870008093E705000080B18093E805000080B1F7
:102880008093E905000080B18093EA05000080B1E3
:102890008093EB05000080B18093EC05000080B1CF
:1028A0008093ED05000080B18093EE05000080B1BB
:1028B0008093EF05000080B18093F005000080B1A7
:1028C0008093F105000080B18093F205000080B193
:1028D0008093F305000080B18093F405000080B17F
:1028E0008093F505000080B18093F605000080B16B
:1028F0008093F705000080B18093F805000080B157
:102900008093F905000080B18093FA05000080B142
:102910008093FB05000080B18093FC05000080B12E
:102920008093FD05000080B18093FE05000080B11A
:102930008093FF05000080B180930006000080B105
:1029400080930106000080B180930206000080B1F0
:1029500080930306000080B180930406000080B1DC
:1029600080930506000080B180930606000080B1C8
:1029700080930706000080B180930806000080B1B4
:1029800080930906000080B180930A06000080B1A0
:1029900080930B06000080B180930C06000080B18C
:1029A00080930D06000080B180930E06000080B178
:1029B00080930F06000080B180931006000080B164
:1029C00080931106000080B180931206000080B150
:1029D00080931306000080B180931406000080B13C
:1029E00080931506000080B180931606000080B128
:1029F00080931706000080B180931806000080B114
:102A000080931906000080B180931A06000080B1FF
:102A100080931B06000080B180931C06000080B1EB
:102A200080931D06000080B180931E06000080B1D7
:102A300080931F06000080B180932006000080B1C3
:102A400080932106000080B180932206000080B1AF
:102A500080932306000080B180932406000080B19B
:102A600080932506000080B180932606000080B187
:102A700080932706000080B180932806000080B173
:102A800080932906000080B180932A06000080B15F
:102A900080932B06000080B180932C06000080B14B
:102AA00080932D06000080B180932E06000080B137
:102AB00080932F06000080B180933006000080B123
:102AC00080933106000080B180933206000080B10F
:102AD00080933306000080B180933406000080B1FB
:102AE00080933506000080B180933606000080B1E7
:102AF00080933706000080B180933806000080B1D3
:102B000080933906000080B180933A06000080B1BE
:102B100080933B06000080B180933C06000080B1AA
:102B200080933D06000080B180933E06000080B196
:102B300080933F06000080B180934006000080B182
:102B400080934106000080B180934206000080B16E
:102B500080934306000080B180934406000080B15A
:102B600080934506000080B180934606000080B146
:102B700080934706000080B180934806000080B132
:102B800080934906000080B180934A06000080B11E
:102B900080934B06000080B180934C06000080B10A
:102BA00080934D06000080B180934E06000080B1F6
:102BB00080934F06000080B180935006000080B1E2
:102BC00080935106000080B180935206000080B1CE
:102BD00080935306000080B180935406000080B1BA
:102BE00080935506000080B180935606000080B1A6
:102BF00080935706000080B180935806000080B192
:102C000080935906000080B180935A06000080B17D
:102C100080935B06000080B180935C06000080B169
:102C200080935D06000080B180935E06000080B155
:102C300080935F06000080B180936006000080B141
:102C400080936106000080B180936206000080B12D
:102C500080936306000080B180936406000080B119
:102C600080936506000080B180936606000080B105
:102C700080936706000080B180936806000080B1F1
:102C800080936906000080B180936A06000080B1DD
:102C900080936B06000080B180936C06000080B1C9
:102CA00080936D06000080B180936E06000080B1B5
:102CB00080936F06000080B180937006000080B1A1
:102CC00080937106000080B180937206000080B18D
:102CD00080937306000080B180937406000080B179
:102CE00080937506000080B180937606000080B165
:102CF00080937706000080B180937806000080B151
:102D000080937906000080B180937A06000080B13C
:102D100080937B06000080B180937C06000080B128
:102D200080937D06000080B180937E06000080B114
:102D300080937F06000080B180938006000080B100
:102D400080938106000080B180938206000080B1EC
:102D500080938306000080B180938406000080B1D8
:102D600080938506000080B180938606000080B1C4
:102D700080938706000080B180938806000080B1B0
:102D800080938906000080B180938A06000080B19C
:102D900080938B06000080B180938C06000080B188
:102DA00080938D06000080B180938E06000080B174
:102DB00080938F06000080B180939006000080B160
:102DC00080939106000080B180939206000080B14C
:102DD00080939306000080B180939406000080B138
:102DE00080939506000080B180939606000080B124
:102DF00080939706000080B180939806000080B110
:102E000080939906000080B180939A06000080B1FB
:102E100080939B06000080B180939C06000080B1E7
:102E200080939D06000080B180939E06000080B1D3
:102E300080939F06000080B18093A006000080B1BF
:102E40008093A106000080B18093A206000080B1AB
:102E50008093A306000080B18093A406000080B197
:102E60008093A506000080B18093A606000080B183
:102E70008093A706000080B18093A806000080B16F
:102E80008093A906000080B18093AA06000080B15B
:102E90008093AB06000080B18093AC06000080B147
:102EA0008093AD06000080B18093AE06000080B133
:102EB0008093AF06000080B18093B006000080B11F
:102EC0008093B106000080B18093B206000080B10B
:102ED0008093B306000080B18093B406000080B1F7
:102EE0008093B506000080B18093B606000080B1E3
:102EF0008093B706000080B18093B806000080B1CF
:102F00008093B906000080B18093BA06000080B1BA
:102F10008093BB06000080B18093BC06000080B1A6
:102F20008093BD06000080B18093BE06000080B192
:102F30008093BF06000080B18093C006000080B17E
:102F40008093C106000080B18093C206000080B16A
:102F50008093C306000080B18093C406000080B156
:102F60008093C506000080B18093C606000080B142
:102F70008093C706000080B18093C806000080B12E
:102F80008093C906000080B18093CA06000080B11A
:102F90008093CB06000080B18093CC06000080B106
:102FA0008093CD06000080B18093CE06000080B1F2
:102FB0008093CF06000080B18093D006000080B1DE
:102FC0008093D106000080B18093D206000080B1CA
:102FD0008093D306000080B18093D406000080B1B6
:102FE0008093D506000080B18093D606000080B1A2
:102FF0008093D706000080B18093D806000080B18E
:103000008093D906000080B18093DA06000080B179
:103010008093DB06000080B18093DC06000080B165
:103020008093DD06000080B18093DE06000080B151
:103030008093DF06000080B18093E006000080B13D
:103040008093E106000080B18093E206000080B129
:103050008093E306000080B18093E406000080B115
:103060008093E506000080B18093E606000080B101
:103070008093E706000080B18093E806000080B1ED
:103080008093E906000080B18093EA06000080B1D9
:103090008093EB06000080B18093EC06000080B1C5
:1030A0008093ED06000080B18093EE06000080B1B1
:1030B0008093EF06000080B18093F006000080B19D
:1030C0008093F106000080B18093F206000080B189
:1030D0008093F306000080B18093F406000080B175
:1030E0008093F506000080B18093F606000080B161
:1030F0008093F706000080B18093F806000080B14D
:103100008093F906000080B18093FA06000080B138
:103110008093FB06000080B18093FC06000080B124
:103120008093FD06000080B18093FE06000080B110
:103130008093FF06000080B180930007000080B1FB
:1031400080930107000080B180930207000080B1E6
:1031500080930307000080B180930407000080B1D2
:1031600080930507000080B180930607000080B1BE
:1031700080930707000080B180930807000080B1AA
:1031800080930907000080B180930A07000080B196
:1031900080930B07000080B180930C07000080B182
:1031A00080930D07000080B180930E07000080B16E
:1031B00080930F07000080B180931007000080B15A
:1031C00080931107000080B180931207000080B146
:1031D00080931307000080B180931407000080B132
:1031E00080931507000080B180931607000080B11E
:1031F00080931707000080B180931807000080B10A
:1032000080931907000080B180931A07000080B1F5
:1032100080931B07000080B180931C07000080B1E1
:1032200080931D07000080B180931E07000080B1CD
:1032300080931F07000080B180932007000080B1B9
:1032400080932107000080B180932207000080B1A5
:1032500080932307000080B180932407000080B191
:1032600080932507000080B180932607000080B17D
:1032700080932707000080B180932807000080B169
:1032800080932907000080B180932A07000080B155
:1032900080932B07000080B180932C07000080B141
:1032A00080932D07000080B180932E07000080B12D
:1032B00080932F07000080B180933007000080B119
:1032C00080933107000080B180933207000080B105
:1032D00080933307000080B180933407000080B1F1
:1032E00080933507000080B180933607000080B1DD
:1032F00080933707000080B180933807000080B1C9
:1033000080933907000080B180933A07000080B1B4
:1033100080933B07000080B180933C07000080B1A0
:1033200080933D07000080B180933E07000080B18C
:1033300080933F07000080B180934007000080B178
:1033400080934107000080B180934207000080B164
:1033500080934307000080B180934407000080B150
:1033600080934507000080B180934607000080B13C
:1033700080934707000080B180934807000080B128
:1033800080934907000080B180934A07000080B114
:1033900080934B07000080B180934C07000080B100
:1033A00080934D07000080B180934E07000080B1EC
:1033B00080934F07000080B180935007000080B1D8
:1033C00080935107000080B180935207000080B1C4
:1033D00080935307000080B180935407000080B1B0
:1033E00080935507000080B180935607000080B19C
:1033F00080935707000080B180935807000080B188
:1034000080935907000080B180935A07000080B173
:1034100080935B07000080B180935C07000080B15F
:1034200080935D07000080B180935E07000080B14B
:1034300080935F07000080B180936007000080B137
:1034400080936107000080B180936207000080B123
:1034500080936307000080B180936407000080B10F
:1034600080936507000080B180936607000080B1FB
:1034700080936707000080B180936807000080B1E7
:1034800080936907000080B180936A07000080B1D3
:1034900080936B07000080B180936C07000080B1BF
:1034A00080936D07000080B180936E07000080B1AB
:1034B00080936F07000080B180937007000080B197
:1034C00080937107000080B180937207000080B183
:1034D00080937307000080B180937407000080B16F
:1034E00080937507000080B180937607000080B15B
:1034F00080937707000080B180937807000080B147
:1035000080937907000080B180937A07000080B132
:1035100080937B07000080B180937C07000080B11E
:1035200080937D07000080B180937E07000080B10A
:1035300080937F07000080B180938007000080B1F6
:1035400080938107000080B180938207000080B1E2
:1035500080938307000080B180938407000080B1CE
:1035600080938507000080B180938607000080B1BA
:1035700080938707000080B180938807000080B1A6
:1035800080938907000080B180938A07000080B192
:1035900080938B07000080B180938C07000080B17E
:1035A00080938D07000080B180938E07000080B16A
:1035B00080938F07000080B180939007000080B156
:1035C00080939107000080B180939207000080B142
:1035D00080939307000080B180939407000080B12E
:1035E00080939507000080B180939607000080B11A
:1035F00080939707000080B180939807000080B106
:1036000080939907000080B180939A07000080B1F1
:1036100080939B07000080B180939C07000080B1DD
:1036200080939D07000080B180939E07000080B1C9
:1036300080939F07000080B18093A007000080B1B5
:103640008093A107000080B18093A207000080B1A1
:103650008093A307000080B18093A407000080B18D
:103660008093A507000080B18093A607000080B179
:103670008093A707000080B18093A807000080B165
:103680008093A907000080B18093AA07000080B151
:103690008093AB07000080B18093AC07000080B13D
:1036A0008093AD07000080B18093AE07000080B129
:1036B0008093AF07000080B18093B007000080B115
:1036C0008093B107000080B18093B207000080B101
:1036D0008093B307000080B18093B407000080B1ED
:1036E0008093B507000080B18093B607000080B1D9
:1036F0008093B707000080B18093B807000080B1C5
:103700008093B907000080B18093BA07000080B1B0
:103710008093BB07000080B18093BC07000080B19C
:103720008093BD07000080B18093BE07000080B188
:103730008093BF07000080B18093C007000080B174
:103740008093C107000080B18093C207000080B160
:103750008093C307000080B18093C407000080B14C
:103760008093C507000080B18093C607000080B138
:103770008093C707000080B18093C807000080B124
:103780008093C907000080B18093CA07000080B110
:103790008093CB07000080B18093CC07000080B1FC
:1037A0008093CD07000080B18093CE07000080B1E8
:1037B0008093CF07000080B18093D007000080B1D4
:1037C0008093D107000080B18093D207000080B1C0
:1037D0008093D307000080B18093D407000080B1AC
:1037E0008093D507000080B18093D607000080B198
:1037F0008093D707000080B18093D807000080B184
:103800008093D907000080B18093DA07000080B16F
:103810008093DB07000080B18093DC07000080B15B
:103820008093DD07000080B18093DE07000080B147
:103830008093DF07000080B18093E007000080B133
:103840008093E107000080B18093E207000080B11F
:103850008093E307000080B18093E407000080B10B
:103860008093E507000080B18093E607000080B1F7
:103870008093E707000080B18093E807000080B1E3
:103880008093E907000080B18093EA07000080B1CF
:103890008093EB07000080B18093EC07000080B1BB
:1038A0008093ED07000080B18093EE07000080B1A7
:1038B0008093EF07000080B18093F007000080B193
:1038C0008093F107000080B18093F207000080B17F
:1038D0008093F307000080B18093F407000080B16B
:1038E0008093F507000080B18093F607000080B157
:1038F0008093F707000080B18093F807000080B143
:103900008093F907000080B18093FA07000080B12E
:103910008093FB07000080B18093FC07000080B11A
:103920008093FD07000080B18093FE07000080B106
:103930008093FF07000080B180930008000080B1F1
:1039400080930108000080B180930208000080B1DC
:1039500080930308000080B180930408000080B1C8
:1039600080930508000080B180930608000080B1B4
:1039700080930708000080B180930808000080B1A0
:1039800080930908000080B180930A08000080B18C
:1039900080930B08000080B180930C08000080B178
:1039A00080930D08000080B180930E08000080B164
:1039B00080930F08000080B180931008000080B150
:1039C00080931108000080B180931208000080B13C
:1039D00080931308000080B180931408000080B128
:1039E00080931508000080B180931608000080B114
:1039F00080931708000080B180931808000080B100
:103A000080931908000080B180931A08000080B1EB
:103A100080931B08000080B180931C08000080B1D7
:103A200080931D08000080B180931E08000080B1C3
:103A300080931F08000080B180932008000080B1AF
:103A400080932108000080B180932208000080B19B
:103A500080932308000080B180932408000080B187
:103A600080932508000080B180932608000080B173
:103A700080932708000080B180932808000080B15F
:103A800080932908000080B180932A08000080B14B
:103A900080932B08000080B180932C08000080B137
:103AA00080932D08000080B180932E08000080B123
:103AB00080932F08000080B180933008000080B10F
:103AC00080933108000080B180933208000080B1FB
:103AD00080933308000080B180933408000080B1E7
:103AE00080933508000080B180933608000080B1D3
:103AF00080933708000080B180933808000080B1BF
:103B000080933908000080B180933A08000080B1AA
:103B100080933B08000080B180933C08000080B196
:103B200080933D08000080B180933E08000080B182
:103B300080933F08000080B180934008000080B16E
:103B400080934108000080B180934208000080B15A
:103B500080934308000080B180934408000080B146
:103B600080934508000080B180934608000080B132
:103B700080934708000080B180934808000080B11E
:103B800080934908000080B180934A08000080B10A
:103B900080934B08000080B180934C08000080B1F6
:103BA00080934D08000080B180934E08000080B1E2
:103BB00080934F08000080B180935008000080B1CE
:103BC00080935108000080B180935208000080B1BA
:103BD00080935308000080B180935408000080B1A6
:103BE00080935508000080B180935608000080B192
:103BF00080935708000080B180935808000080B17E
:103C000080935908000080B180935A08000080B169
:103C100080935B08000080B180935C08000080B155
:103C200080935D08000080B180935E08000080B141
:103C300080935F08000080B180936008000080B12D
:103C400080936108000080B180936208000080B119
:103C500080936308000080B180936408000080B105
:103C600080936508000080B180936608000080B1F1
:103C700080936708000080B180936808000080B1DD
:103C800080936908000080B180936A08000080B1C9
:103C900080936B08000080B180936C08000080B1B5
:103CA00080936D08000080B180936E08000080B1A1
:103CB00080936F08000080B180937008000080B18D
:103CC00080937108000080B180937208000080B179
:103CD00080937308000080B180937408000080B165
:103CE00080937508000080B180937608000080B151
:103CF00080937708000080B180937808000080B13D
:103D000080937908000080B180937A08000080B128
:103D100080937B08000080B180937C08000080B114
:103D200080937D08000080B180937E08000080B100
:103D300080937F08000080B180938008000080B1EC
:103D400080938108000080B180938208000080B1D8
:103D500080938308000080B180938408000080B1C4
:103D600080938508000080B180938608000080B1B0
:103D700080938708000080B180938808000080B19C
:103D800080938908000080B180938A08000080B188
:103D900080938B08000080B180938C08000080B174
:103DA00080938D08000080B180938E08000080B160
:103DB00080938F08000080B180939008000080B14C
:103DC00080939108000080B180939208000080B138
:103DD00080939308000080B180939408000080B124
:103DE00080939508000080B180939608000080B110
:103DF00080939708000080B180939808000080B1FC
:103E000080939908000080B180939A08000080B1E7
:103E100080939B08000080B180939C08000080B1D3
:103E200080939D08000080B180939E08000080B1BF
:103E300080939F08000080B18093A008000080B1AB
:103E40008093A108000080B18093A208000080B197
:103E50008093A308000080B18093A408000080B183
:103E60008093A508000080B18093A608000080B16F
:103E70008093A708000080B18093A808000080B15B
:103E80008093A908000080B18093AA08000080B147
:103E90008093AB08000080B18093AC08000080B133
:103EA0008093AD08000080B18093AE08000080B11F
:103EB0008093AF08000080B18093B008000080B10B
:103EC0008093B108000080B18093B208000080B1F7
:103ED0008093B308000080B18093B408000080B1E3
:103EE0008093B508000080B18093B608000080B1CF
:103EF0008093B708000080B18093B808000080B1BB
:103F00008093B908000080B18093BA08000080B1A6
:103F10008093BB08000080B18093BC08000080B192
:103F20008093BD08000080B18093BE08000080B17E
:103F30008093BF08000080B18093C008000080B16A
:103F40008093C108000080B18093C208000080B156
:103F50008093C308000080B18093C408000080B142
:103F60008093C508000080B18093C608000080B12E
:103F70008093C708000080B18093C808000080B11A
:103F80008093C908000080B18093CA08000080B106
:103F90008093CB08000080B18093CC08000080B1F2
:103FA0008093CD08000080B18093CE08000080B1DE
:103FB0008093CF08000080B18093D008000080B1CA
:103FC0008093D108000080B18093D208000080B1B6
:103FD0008093D308000080B18093D408000080B1A2
:103FE0008093D508000080B18093D608000080B18E
:103FF0008093D708000080B18093D808000080B17A
:104000008093D908000080B18093DA08000080B165
:104010008093DB08000080B18093DC08000080B151
:104020008093DD08000080B18093DE08000080B13D
:104030008093DF08000080B18093E008000080B129
:104040008093E108000080B18093E208000080B115
:104050008093E308000080B18093E408000080B101
:104060008093E508000080B18093E608000080B1ED
:104070008093E708000080B18093E808000080B1D9
:104080008093E908000080B18093EA08000080B1C5
:104090008093EB08000080B18093EC08000080B1B1
:1040A0008093ED08000080B18093EE08000080B19D
:1040B0008093EF08000080B18093F008000080B189
:1040C0008093F108000080B18093F208000080B175
:1040D0008093F308000080B18093F408000080B161
:1040E0008093F508000080B18093F608000080B14D
:1040F0008093F708000080B18093F808000080B139
:104100008093F908000080B18093FA08000080B124
:104110008093FB08000080B18093FC08000080B110
:104120008093FD08000080B18093FE08000080B1FC
:104130008093FF08000080B180930009000080B1E7
:1041400080930109000080B180930209000080B1D2
:1041500080930309000080B180930409000080B1BE
:1041600080930509000080B180930609000080B1AA
:1041700080930709000080B180930809000080B196
:1041800080930909000080B180930A09000080B182
:1041900080930B09000080B180930C09000080B16E
:1041A00080930D09000080B180930E09000080B15A
:1041B00080930F09000080B180931009000080B146
:1041C00080931109000080B180931209000080B132
:1041D00080931309000080B180931409000080B11E
:1041E00080931509000080B180931609000080B10A
:1041F00080931709000080B180931809000080B1F6
:1042000080931909000080B180931A09000080B1E1
:1042100080931B09000080B180931C09000080B1CD
:1042200080931D09000080B180931E09000080B1B9
:1042300080931F09000080B180932009000080B1A5
:1042400080932109000080B180932209000080B191
:1042500080932309000080B180932409000080B17D
:1042600080932509000080B180932609000080B169
:1042700080932709000080B180932809000080B155
:1042800080932909000080B180932A09000080B141
:1042900080932B09000080B180932C09000080B12D
:1042A00080932D09000080B180932E09000080B119
:1042B00080932F09000080B180933009000080B105
:1042C00080933109000080B180933209000080B1F1
:1042D00080933309000080B180933409000080B1DD
:1042E00080933509000080B180933609000080B1C9
:1042F00080933709000080B180933809000080B1B5
:1043000080933909000080B180933A09000080B1A0
:1043100080933B09000080B180933C09000080B18C
:1043200080933D09000080B180933E09000080B178
:1043300080933F09000080B180934009000080B164
:1043400080934109000080B180934209000080B150
:1043500080934309000080B180934409000080B13C
:1043600080934509000080B180934609000080B128
:1043700080934709000080B180934809000080B114
:1043800080934909000080B180934A09000080B100
:1043900080934B09000080B180934C09000080B1EC
:1043A00080934D09000080B180934E09000080B1D8
:1043B00080934F09000080B180935009000080B1C4
:1043C00080935109000080B180935209000080B1B0
:1043D00080935309000080B180935409000080B19C
:1043E00080935509000080B180935609000080B188
:1043F00080935709000080B180935809000080B174
:1044000080935909000080B180935A09000080B15F
:1044100080935B09000080B180935C09000080B14B
:1044200080935D09000080B180935E09000080B137
:1044300080935F09000080B180936009000080B123
:1044400080936109000080B180936209000080B10F
:1044500080936309000080B180936409000080B1FB
:1044600080936509000080B180936609000080B1E7
:1044700080936709000080B180936809000080B1D3
:1044800080936909000080B180936A09000080B1BF
:1044900080936B09000080B180936C09000080B1AB
:1044A00080936D09000080B180936E09000080B197
:1044B00080936F09000080B180937009000080B183
:1044C00080937109000080B180937209000080B16F
:1044D00080937309000080B180937409000080B15B
:1044E00080937509000080B180937609000080B147
:1044F00080937709000080B180937809000080B133
:1045000080937909000080B180937A09000080B11E
:1045100080937B09000080B180937C09000080B10A
:1045200080937D09000080B180937E09000080B1F6
:1045300080937F09000080B180938009000080B1E2
:1045400080938109000080B180938209000080B1CE
:1045500080938309000080B180938409000080B1BA
:1045600080938509000080B180938609000080B1A6
:1045700080938709000080B180938809000080B192
:1045800080938909000080B180938A09000080B17E
:1045900080938B09000080B180938C09000080B16A
:1045A00080938D09000080B180938E09000080B156
:1045B00080938F09000080B180939009000080B142
:1045C00080939109000080B180939209000080B12E
:1045D00080939309000080B180939409000080B11A
:1045E00080939509000080B180939609000080B106
:1045F00080939709000080B180939809000080B1F2
:1046000080939909000080B180939A09000080B1DD
:1046100080939B09000080B180939C09000080B1C9
:1046200080939D09000080B180939E09000080B1B5
:1046300080939F09000080B18093A009000080B1A1
:104640008093A109000080B18093A209000080B18D
:104650008093A309000080B18093A409000080B179
:104660008093A509000080B18093A609000080B165
:104670008093A709000080B18093A809000080B151
:104680008093A909000080B18093AA09000080B13D
:104690008093AB09000080B18093AC09000080B129
:1046A0008093AD09000080B18093AE09000080B115
:1046B0008093AF09000080B18093B009000080B101
:1046C0008093B109000080B18093B209000080B1ED
:1046D0008093B309000080B18093B409000080B1D9
:1046E0008093B509000080B18093B609000080B1C5
:1046F0008093B709000080B18093B809000080B1B1
:104700008093B909000080B18093BA09000080B19C
:104710008093BB09000080B18093BC09000080B188
:104720008093BD09000080B18093BE09000080B174
:104730008093BF09000080B18093C009000080B160
:104740008093C109000080B18093C209000080B14C
:104750008093C309000080B18093C409000080B138
:104760008093C509000080B18093C609000080B124
:104770008093C709000080B18093C809000080B110
:104780008093C909000080B18093CA09000080B1FC
:104790008093CB09000080B18093CC09000080B1E8
:1047A0008093CD09000080B18093CE09000080B1D4
:1047B0008093CF09000080B18093D009000080B1C0
:1047C0008093D109000080B18093D209000080B1AC
:1047D0008093D309000080B18093D409000080B198
:1047E0008093D509000080B18093D609000080B184
:1047F0008093D709000080B18093D809000080B170
:104800008093D909000080B18093DA09000080B15B
:104810008093DB09000080B18093DC09000080B147
:104820008093DD09000080B18093DE09000080B133
:104830008093DF09000080B18093E009000080B11F
:104840008093E109000080B18093E209000080B10B
:104850008093E309000080B18093E409000080B1F7
:104860008093E509000080B18093E609000080B1E3
:104870008093E709000080B18093E809000080B1CF
:104880008093E909000080B18093EA09000080B1BB
:104890008093EB09000080B18093EC09000080B1A7
:1048A0008093ED09000080B18093EE09000080B193
:1048B0008093EF09000080B18093F009000080B17F
:1048C0008093F109000080B18093F209000080B16B
:1048D0008093F309000080B18093F409000080B157
:1048E0008093F509000080B18093F609000080B143
:1048F0008093F709000080B18093F809000080B12F
:104900008093F909000080B18093FA09000080B11A
:104910008093FB09000080B18093FC09000080B106
:104920008093FD09000080B18093FE09000080B1F2
:104930008093FF09000080B18093000A000080B1DD
:104940008093010A000080B18093020A000080B1C8
:104950008093030A000080B18093040A000080B1B4
:104960008093050A000080B18093060A000080B1A0
:104970008093070A000080B18093080A000080B18C
:104980008093090A000080B180930A0A000080B178
:1049900080930B0A000080B180930C0A000080B164
:1049A00080930D0A000080B180930E0A000080B150
:1049B00080930F0A000080B18093100A000080B13C
:1049C0008093110A000080B18093120A000080B128
:1049D0008093130A000080B18093140A000080B114
:1049E0008093150A000080B18093160A000080B100
:1049F0008093170A000080B18093180A000080B1EC
:104A00008093190A000080B180931A0A000080B1D7
:104A100080931B0A000080B180931C0A000080B1C3
:104A200080931D0A000080B180931E0A000080B1AF
:104A300080931F0A000080B18093200A000080B19B
:104A40008093210A000080B18093220A000080B187
:104A50008093230A000080B18093240A000080B173
:104A60008093250A000080B18093260A000080B15F
:104A70008093270A000080B18093280A000080B14B
:104A80008093290A000080B180932A0A000080B137
:104A900080932B0A000080B180932C0A000080B123
:104AA00080932D0A000080B180932E0A000080B10F
:104AB00080932F0A000080B18093300A000080B1FB
:104AC0008093310A000080B18093320A000080B1E7
:104AD0008093330A000080B18093340A000080B1D3
:104AE0008093350A000080B18093360A000080B1BF
:104AF0008093370A000080B18093380A000080B1AB
:104B00008093390A000080B180933A0A000080B196
:104B100080933B0A000080B180933C0A000080B182
:104B200080933D0A000080B180933E0A000080B16E
:104B300080933F0A000080B18093400A000080B15A
:104B40008093410A000080B18093420A000080B146
:104B50008093430A000080B18093440A000080B132
:104B60008093450A000080B18093460A000080B11E
:104B70008093470A000080B18093480A000080B10A
:104B80008093490A000080B180934A0A000080B1F6
:104B900080934B0A000080B180934C0A000080B1E2
:104BA00080934D0A000080B180934E0A000080B1CE
:104BB00080934F0A000080B18093500A000080B1BA
:104BC0008093510A000080B18093520A000080B1A6
:104BD0008093530A000080B18093540A000080B192
:104BE0008093550A000080B18093560A000080B17E
:104BF0008093570A000080B18093580A000080B16A
:104C00008093590A000080B180935A0A000080B155
:104C100080935B0A000080B180935C0A000080B141
:104C200080935D0A000080B180935E0A000080B12D
:104C300080935F0A000080B18093600A000080B119
:104C40008093610A000080B18093620A000080B105
:104C50008093630A000080B18093640A000080B1F1
:104C60008093650A000080B18093660A000080B1DD
:104C70008093670A000080B18093680A000080B1C9
:104C80008093690A000080B180936A0A000080B1B5
:104C900080936B0A000080B180936C0A000080B1A1
:104CA00080936D0A000080B180936E0A000080B18D
:104CB00080936F0A000080B18093700A000080B179
:104CC0008093710A000080B18093720A000080B165
:104CD0008093730A000080B18093740A000080B151
:104CE0008093750A000080B18093760A000080B13D
:104CF0008093770A000080B18093780A000080B129
:104D00008093790A000080B180937A0A000080B114
:104D100080937B0A000080B180937C0A000080B100
:104D200080937D0A000080B180937E0A000080B1EC
:104D300080937F0A000080B18093800A000080B1D8
:104D40008093810A000080B18093820A000080B1C4
:104D50008093830A000080B18093840A000080B1B0
:104D60008093850A000080B18093860A000080B19C
:104D70008093870A000080B18093880A000080B188
:104D80008093890A000080B180938A0A000080B174
:104D900080938B0A000080B180938C0A000080B160
:104DA00080938D0A000080B180938E0A000080B14C
:104DB00080938F0A000080B18093900A000080B138
:104DC0008093910A000080B18093920A000080B124
:104DD0008093930A000080B18093940A000080B110
:104DE0008093950A000080B18093960A000080B1FC
:104DF0008093970A000080B18093980A000080B1E8
:104E00008093990A000080B180939A0A000080B1D3
:104E100080939B0A000080B180939C0A000080B1BF
:104E200080939D0A000080B180939E0A000080B1AB
:104E300080939F0A000080B18093A00A000080B197
:104E40008093A10A000080B18093A20A000080B183
:104E50008093A30A000080B18093A40A000080B16F
:104E60008093A50A000080B18093A60A000080B15B
:104E70008093A70A000080B18093A80A000080B147
:104E80008093A90A000080B18093AA0A000080B133
:104E90008093AB0A000080B18093AC0A000080B11F
:104EA0008093AD0A000080B18093AE0A000080B10B
:104EB0008093AF0A000080B18093B00A000080B1F7
:104EC0008093B10A000080B18093B20A000080B1E3
:104ED0008093B30A000080B18093B40A000080B1CF
:104EE0008093B50A000080B18093B60A000080B1BB
:104EF0008093B70A000080B18093B80A000080B1A7
:104F00008093B90A000080B18093BA0A000080B192
:104F10008093BB0A000080B18093BC0A000080B17E
:104F20008093BD0A000080B18093BE0A000080B16A
:104F30008093BF0A000080B18093C00A000080B156
:104F40008093C10A000080B18093C20A000080B142
:104F50008093C30A000080B18093C40A000080B12E
:104F60008093C50A000080B18093C60A000080B11A
:104F70008093C70A000080B18093C80A000080B106
:104F80008093C90A000080B18093CA0A000080B1F2
:104F90008093CB0A000080B18093CC0A000080B1DE
:104FA0008093CD0A000080B18093CE0A000080B1CA
:104FB0008093CF0A000080B18093D00A000080B1B6
:104FC0008093D10A000080B18093D20A000080B1A2
:104FD0008093D30A000080B18093D40A000080B18E
:104FE0008093D50A000080B18093D60A000080B17A
:104FF0008093D70A000080B18093D80A000080B166
:105000008093D90A000080B18093DA0A000080B151
:105010008093DB0A000080B18093DC0A000080B13D
:105020008093DD0A000080B18093DE0A000080B129
:105030008093DF0A000080B18093E00A000080B115
:105040008093E10A000080B18093E20A000080B101
:105050008093E30A000080B18093E40A000080B1ED
:105060008093E50A000080B18093E60A000080B1D9
:105070008093E70A000080B18093E80A000080B1C5
:105080008093E90A000080B18093EA0A000080B1B1
:105090008093EB0A000080B18093EC0A000080B19D
:1050A0008093ED0A000080B18093EE0A000080B189
:1050B0008093EF0A000080B18093F00A000080B175
:1050C0008093F10A000080B18093F20A000080B161
:1050D0008093F30A000080B18093F40A000080B14D
:1050E0008093F50A000080B18093F60A000080B139
:1050F0008093F70A000080B18093F80A000080B125
:105100008093F90A000080B18093FA0A000080B110
:105110008093FB0A000080B18093FC0A000080B1FC
:105120008093FD0A000080B18093FE0A000080B1E8
:105130008093FF0A000080B18093000B000080B1D3
:105140008093010B000080B18093020B000080B1BE
:105150008093030B000080B18093040B000080B1AA
:105160008093050B000080B18093060B000080B196
:105170008093070B000080B18093080B000080B182
:105180008093090B000080B180930A0B000080B16E
:1051900080930B0B000080B180930C0B000080B15A
:1051A00080930D0B000080B180930E0B000080B146
:1051B00080930F0B000080B18093100B000080B132
:1051C0008093110B000080B18093120B000080B11E
:1051D0008093130B000080B18093140B000080B10A
:1051E0008093150B000080B18093160B000080B1F6
:1051F0008093170B000080B18093180B000080B1E2
:105200008093190B000080B180931A0B000080B1CD
:1052100080931B0B000080B180931C0B000080B1B9
:1052200080931D0B000080B180931E0B000080B1A5
:1052300080931F0B000080B18093200B000080B191
:105240008093210B000080B18093220B000080B17D
:105250008093230B000080B18093240B000080B169
:105260008093250B000080B18093260B000080B155
:105270008093270B000080B18093280B000080B141
:105280008093290B000080B180932A0B000080B12D
:1052900080932B0B000080B180932C0B000080B119
:1052A00080932D0B000080B180932E0B000080B105
:1052B00080932F0B000080B18093300B000080B1F1
:1052C0008093310B000080B18093320B000080B1DD
:1052D0008093330B000080B18093340B000080B1C9
:1052E0008093350B000080B18093360B000080B1B5
:1052F0008093370B000080B18093380B000080B1A1
:105300008093390B000080B180933A0B000080B18C
:1053100080933B0B000080B180933C0B000080B178
:1053200080933D0B000080B180933E0B000080B164
:1053300080933F0B000080B18093400B000080B150
:105340008093410B000080B18093420B000080B13C
:105350008093430B000080B18093440B000080B128
:105360008093450B000080B18093460B000080B114
:105370008093470B000080B18093480B000080B100
:105380008093490B000080B180934A0B000080B1EC
:1053900080934B0B000080B180934C0B000080B1D8
:1053A00080934D0B000080B180934E0B000080B1C4
:1053B00080934F0B000080B18093500B000080B1B0
:1053C0008093510B000080B18093520B000080B19C
:1053D0008093530B000080B18093540B000080B188
:1053E0008093550B000080B18093560B000080B174
:1053F0008093570B000080B18093580B000080B160
:105400008093590B000080B180935A0B000080B14B
:1054100080935B0B000080B180935C0B000080B137
:1054200080935D0B000080B180935E0B000080B123
:1054300080935F0B000080B18093600B000080B10F
:105440008093610B000080B18093620B000080B1FB
:105450008093630B000080B18093640B000080B1E7
:105460008093650B000080B18093660B000080B1D3
:105470008093670B000080B18093680B000080B1BF
:105480008093690B000080B180936A0B000080B1AB
:1054900080936B0B000080B180936C0B000080B197
:1054A00080936D0B000080B180936E0B000080B183
:1054B00080936F0B000080B18093700B000080B16F
:1054C0008093710B000080B18093720B000080B15B
:1054D0008093730B000080B18093740B000080B147
:1054E0008093750B000080B18093760B000080B133
:1054F0008093770B000080B18093780B000080B11F
:105500008093790B000080B180937A0B000080B10A
:1055100080937B0B000080B180937C0B000080B1F6
:1055200080937D0B000080B180937E0B000080B1E2
:1055300080937F0B000080B18093800B000080B1CE
:105540008093810B000080B18093820B000080B1BA
:105550008093830B000080B18093840B000080B1A6
:105560008093850B000080B18093860B000080B192
:105570008093870B000080B18093880B000080B17E
:105580008093890B000080B180938A0B000080B16A
:1055900080938B0B000080B180938C0B000080B156
:1055A00080938D0B000080B180938E0B000080B142
:1055B00080938F0B000080B18093900B000080B12E
:1055C0008093910B000080B18093920B000080B11A
:1055D0008093930B000080B18093940B000080B106
:1055E0008093950B000080B18093960B000080B1F2
:1055F0008093970B000080B18093980B000080B1DE
:105600008093990B000080B180939A0B000080B1C9
:1056100080939B0B000080B180939C0B000080B1B5
:1056200080939D0B000080B180939E0B000080B1A1
:1056300080939F0B000080B18093A00B000080B18D
:105640008093A10B000080B18093A20B000080B179
:105650008093A30B000080B18093A40B000080B165
:105660008093A50B000080B18093A60B000080B151
:105670008093A70B000080B18093A80B000080B13D
:105680008093A90B000080B18093AA0B000080B129
:105690008093AB0B000080B18093AC0B000080B115
:1056A0008093AD0B000080B18093AE0B000080B101
:1056B0008093AF0B000080B18093B00B000080B1ED
:1056C0008093B10B000080B18093B20B000080B1D9
:1056D0008093B30B000080B18093B40B000080B1C5
:1056E0008093B50B000080B18093B60B000080B1B1
:1056F0008093B70B000080B18093B80B000080B19D
:105700008093B90B000080B18093BA0B000080B188
:105710008093BB0B000080B18093BC0B000080B174
:105720008093BD0B000080B18093BE0B000080B160
:105730008093BF0B000080B18093C00B000080B14C
:105740008093C10B000080B18093C20B000080B138
:105750008093C30B000080B18093C40B000080B124
:105760008093C50B000080B18093C60B000080B110
:105770008093C70B000080B18093C80B000080B1FC
:105780008093C90B000080B18093CA0B000080B1E8
:105790008093CB0B000080B18093CC0B000080B1D4
:1057A0008093CD0B000080B18093CE0B000080B1C0
:1057B0008093CF0B000080B18093D00B000080B1AC
:1057C0008093D10B000080B18093D20B000080B198
:1057D0008093D30B000080B18093D40B000080B184
:1057E0008093D50B000080B18093D60B000080B170
:1057F0008093D70B000080B18093D80B000080B15C
:105800008093D90B000080B18093DA0B000080B147
:105810008093DB0B000080B18093DC0B000080B133
:105820008093DD0B000080B18093DE0B000080B11F
:105830008093DF0B000080B18093E00B000080B10B
:105840008093E10B000080B18093E20B000080B1F7
:105850008093E30B000080B18093E40B000080B1E3
:105860008093E50B000080B18093E60B000080B1CF
:105870008093E70B000080B18093E80B000080B1BB
:105880008093E90B000080B18093EA0B000080B1A7
:105890008093EB0B000080B18093EC0B000080B193
:1058A0008093ED0B000080B18093EE0B000080B17F
:1058B0008093EF0B000080B18093F00B000080B16B
:1058C0008093F10B000080B18093F20B000080B157
:1058D0008093F30B000080B18093F40B000080B143
:1058E0008093F50B000080B18093F60B000080B12F
:1058F0008093F70B000080B18093F80B000080B11B
:105900008093F90B000080B18093FA0B000080B106
:105910008093FB0B000080B18093FC0B000080B1F2
:105920008093FD0B000080B18093FE0B000080B1DE
:105930008093FF0B000080B18093000C000080B1C9
:105940008093010C000080B18093020C000080B1B4
:105950008093030C000080B18093040C000080B1A0
:105960008093050C000080B18093060C000080B18C
:105970008093070C000080B18093080C000080B178
:105980008093090C000080B180930A0C000080B164
:1059900080930B0C000080B180930C0C000080B150
:1059A00080930D0C000080B180930E0C000080B13C
:1059B00080930F0C000080B18093100C000080B128
:1059C0008093110C000080B18093120C000080B114
:1059D0008093130C000080B18093140C000080B100
:1059E0008093150C000080B18093160C000080B1EC
:1059F0008093170C000080B18093180C000080B1D8
:105A00008093190C000080B180931A0C000080B1C3
:105A100080931B0C000080B180931C0C000080B1AF
:105A200080931D0C000080B180931E0C000080B19B
:105A300080931F0C000080B18093200C000080B187
:105A40008093210C000080B18093220C000080B173
:105A50008093230C000080B18093240C000080B15F
:105A60008093250C000080B18093260C000080B14B
:105A70008093270C000080B18093280C000080B137
:105A80008093290C000080B180932A0C000080B123
:105A900080932B0C000080B180932C0C000080B10F
:105AA00080932D0C000080B180932E0C000080B1FB
:105AB00080932F0C000080B18093300C000080B1E7
:105AC0008093310C000080B18093320C000080B1D3
:105AD0008093330C000080B18093340C000080B1BF
